{
  "_format": "hh-sol-artifact-1",
  "contractName": "Company",
  "sourceName": "contracts/Company.sol",
  "abi": [
    {
      "inputs": [],
      "name": "EmployeeAlreadyExists",
      "type": "error"
    },
    {
      "inputs": [],
      "name": "InsufficientFunds",
      "type": "error"
    },
    {
      "anonymous": false,
      "inputs": [
        {
          "indexed": true,
          "internalType": "address",
          "name": "company",
          "type": "address"
        }
      ],
      "name": "CompanyPensionTransferFailed",
      "type": "event"
    },
    {
      "anonymous": false,
      "inputs": [
        {
          "indexed": true,
          "internalType": "address",
          "name": "company",
          "type": "address"
        },
        {
          "indexed": false,
          "internalType": "uint256",
          "name": "amount",
          "type": "uint256"
        }
      ],
      "name": "CompanyPensionTransferSucceeded",
      "type": "event"
    },
    {
      "anonymous": false,
      "inputs": [
        {
          "indexed": true,
          "internalType": "uint256",
          "name": "proposalId",
          "type": "uint256"
        },
        {
          "indexed": false,
          "internalType": "bool",
          "name": "success",
          "type": "bool"
        },
        {
          "indexed": false,
          "internalType": "uint256",
          "name": "amount",
          "type": "uint256"
        }
      ],
      "name": "CryptoProposalCompleted",
      "type": "event"
    },
    {
      "anonymous": false,
      "inputs": [
        {
          "indexed": true,
          "internalType": "uint256",
          "name": "proposalId",
          "type": "uint256"
        },
        {
          "indexed": false,
          "internalType": "string",
          "name": "description",
          "type": "string"
        },
        {
          "indexed": false,
          "internalType": "uint256",
          "name": "value",
          "type": "uint256"
        },
        {
          "indexed": false,
          "internalType": "address",
          "name": "currencyAddress",
          "type": "address"
        }
      ],
      "name": "CryptoProposalCreated",
      "type": "event"
    },
    {
      "anonymous": false,
      "inputs": [
        {
          "indexed": true,
          "internalType": "uint256",
          "name": "proposalId",
          "type": "uint256"
        },
        {
          "indexed": true,
          "internalType": "address",
          "name": "voter",
          "type": "address"
        },
        {
          "indexed": false,
          "internalType": "bool",
          "name": "vote",
          "type": "bool"
        }
      ],
      "name": "CryptoProposalVoted",
      "type": "event"
    },
    {
      "anonymous": false,
      "inputs": [
        {
          "indexed": false,
          "internalType": "uint8",
          "name": "version",
          "type": "uint8"
        }
      ],
      "name": "Initialized",
      "type": "event"
    },
    {
      "anonymous": false,
      "inputs": [
        {
          "indexed": true,
          "internalType": "address",
          "name": "previousOwner",
          "type": "address"
        },
        {
          "indexed": true,
          "internalType": "address",
          "name": "newOwner",
          "type": "address"
        }
      ],
      "name": "OwnershipTransferred",
      "type": "event"
    },
    {
      "anonymous": false,
      "inputs": [
        {
          "indexed": true,
          "internalType": "uint256",
          "name": "proposalId",
          "type": "uint256"
        },
        {
          "indexed": false,
          "internalType": "bool",
          "name": "success",
          "type": "bool"
        },
        {
          "indexed": false,
          "internalType": "uint256",
          "name": "amount",
          "type": "uint256"
        }
      ],
      "name": "W2wProposalCompleted",
      "type": "event"
    },
    {
      "anonymous": false,
      "inputs": [
        {
          "indexed": true,
          "internalType": "uint256",
          "name": "proposalId",
          "type": "uint256"
        },
        {
          "indexed": false,
          "internalType": "string",
          "name": "description",
          "type": "string"
        },
        {
          "indexed": false,
          "internalType": "uint256",
          "name": "value",
          "type": "uint256"
        },
        {
          "indexed": false,
          "internalType": "address",
          "name": "targetAddress",
          "type": "address"
        }
      ],
      "name": "W2wProposalCreated",
      "type": "event"
    },
    {
      "anonymous": false,
      "inputs": [
        {
          "indexed": true,
          "internalType": "uint256",
          "name": "proposalId",
          "type": "uint256"
        },
        {
          "indexed": true,
          "internalType": "address",
          "name": "voter",
          "type": "address"
        },
        {
          "indexed": false,
          "internalType": "bool",
          "name": "vote",
          "type": "bool"
        }
      ],
      "name": "W2wProposalVoted",
      "type": "event"
    },
    {
      "inputs": [
        {
          "internalType": "address",
          "name": "_employeeAddress",
          "type": "address"
        },
        {
          "internalType": "uint256",
          "name": "_pensionStartDate",
          "type": "uint256"
        },
        {
          "internalType": "uint256",
          "name": "_pensionDuration",
          "type": "uint256"
        },
        {
          "internalType": "uint256",
          "name": "_monthyAmount",
          "type": "uint256"
        },
        {
          "internalType": "uint256",
          "name": "_employeeJoiningDate",
          "type": "uint256"
        },
        {
          "internalType": "uint256",
          "name": "_employeeLeavingDate",
          "type": "uint256"
        },
        {
          "internalType": "uint256",
          "name": "_minimumServiceRequired",
          "type": "uint256"
        }
      ],
      "name": "addEmployee",
      "outputs": [],
      "stateMutability": "nonpayable",
      "type": "function"
    },
    {
      "inputs": [
        {
          "internalType": "address[]",
          "name": "_employeeAddresses",
          "type": "address[]"
        },
        {
          "internalType": "uint256[]",
          "name": "_pensionStartDates",
          "type": "uint256[]"
        },
        {
          "internalType": "uint256[]",
          "name": "_pensionDurations",
          "type": "uint256[]"
        },
        {
          "internalType": "uint256[]",
          "name": "_monthyAmounts",
          "type": "uint256[]"
        },
        {
          "internalType": "uint256[]",
          "name": "_employeeJoiningDates",
          "type": "uint256[]"
        },
        {
          "internalType": "uint256[]",
          "name": "_employeeLeavingDates",
          "type": "uint256[]"
        },
        {
          "internalType": "uint256[]",
          "name": "_minimumServiceRequireds",
          "type": "uint256[]"
        }
      ],
      "name": "addEmployees",
      "outputs": [],
      "stateMutability": "nonpayable",
      "type": "function"
    },
    {
      "inputs": [
        {
          "internalType": "uint256",
          "name": "proposalIndex",
          "type": "uint256"
        }
      ],
      "name": "approveCryptoProposal",
      "outputs": [],
      "stateMutability": "nonpayable",
      "type": "function"
    },
    {
      "inputs": [
        {
          "internalType": "uint256",
          "name": "proposalIndex",
          "type": "uint256"
        }
      ],
      "name": "approveW2wProposal",
      "outputs": [],
      "stateMutability": "nonpayable",
      "type": "function"
    },
    {
      "inputs": [
        {
          "internalType": "string",
          "name": "_name",
          "type": "string"
        }
      ],
      "name": "changeName",
      "outputs": [],
      "stateMutability": "nonpayable",
      "type": "function"
    },
    {
      "inputs": [
        {
          "internalType": "string",
          "name": "_description",
          "type": "string"
        },
        {
          "internalType": "uint256",
          "name": "_value",
          "type": "uint256"
        },
        {
          "internalType": "address",
          "name": "_currencyAddress",
          "type": "address"
        }
      ],
      "name": "createCryptoProposal",
      "outputs": [],
      "stateMutability": "nonpayable",
      "type": "function"
    },
    {
      "inputs": [
        {
          "internalType": "string",
          "name": "_description",
          "type": "string"
        },
        {
          "internalType": "uint256",
          "name": "_value",
          "type": "uint256"
        },
        {
          "internalType": "address payable",
          "name": "_targetAddress",
          "type": "address"
        }
      ],
      "name": "createW2wProposal",
      "outputs": [],
      "stateMutability": "nonpayable",
      "type": "function"
    },
    {
      "inputs": [
        {
          "internalType": "uint256",
          "name": "",
          "type": "uint256"
        }
      ],
      "name": "employeeAddresses",
      "outputs": [
        {
          "internalType": "address payable",
          "name": "",
          "type": "address"
        }
      ],
      "stateMutability": "view",
      "type": "function"
    },
    {
      "inputs": [
        {
          "internalType": "address",
          "name": "",
          "type": "address"
        }
      ],
      "name": "employees",
      "outputs": [
        {
          "internalType": "uint256",
          "name": "pensionStartDate",
          "type": "uint256"
        },
        {
          "internalType": "uint256",
          "name": "pensionDuration",
          "type": "uint256"
        },
        {
          "internalType": "uint256",
          "name": "monthyAmount",
          "type": "uint256"
        },
        {
          "internalType": "uint256",
          "name": "employeeJoiningDate",
          "type": "uint256"
        },
        {
          "internalType": "uint256",
          "name": "employeeLeavingDate",
          "type": "uint256"
        },
        {
          "internalType": "uint256",
          "name": "minimumServiceRequired",
          "type": "uint256"
        }
      ],
      "stateMutability": "view",
      "type": "function"
    },
    {
      "inputs": [
        {
          "internalType": "uint256",
          "name": "proposalIndex",
          "type": "uint256"
        }
      ],
      "name": "finalizeCryptoProposal",
      "outputs": [],
      "stateMutability": "nonpayable",
      "type": "function"
    },
    {
      "inputs": [
        {
          "internalType": "uint256",
          "name": "proposalIndex",
          "type": "uint256"
        }
      ],
      "name": "finalizeW2wProposal",
      "outputs": [],
      "stateMutability": "nonpayable",
      "type": "function"
    },
    {
      "inputs": [
        {
          "internalType": "address",
          "name": "_employeeAddress",
          "type": "address"
        }
      ],
      "name": "getEmployee",
      "outputs": [
        {
          "components": [
            {
              "internalType": "uint256",
              "name": "pensionStartDate",
              "type": "uint256"
            },
            {
              "internalType": "uint256",
              "name": "pensionDuration",
              "type": "uint256"
            },
            {
              "internalType": "uint256",
              "name": "monthyAmount",
              "type": "uint256"
            },
            {
              "internalType": "uint256",
              "name": "employeeJoiningDate",
              "type": "uint256"
            },
            {
              "internalType": "uint256",
              "name": "employeeLeavingDate",
              "type": "uint256"
            },
            {
              "internalType": "uint256",
              "name": "minimumServiceRequired",
              "type": "uint256"
            }
          ],
          "internalType": "struct Employee",
          "name": "",
          "type": "tuple"
        }
      ],
      "stateMutability": "view",
      "type": "function"
    },
    {
      "inputs": [],
      "name": "getEmployees",
      "outputs": [
        {
          "components": [
            {
              "internalType": "uint256",
              "name": "pensionStartDate",
              "type": "uint256"
            },
            {
              "internalType": "uint256",
              "name": "pensionDuration",
              "type": "uint256"
            },
            {
              "internalType": "uint256",
              "name": "monthyAmount",
              "type": "uint256"
            },
            {
              "internalType": "uint256",
              "name": "employeeJoiningDate",
              "type": "uint256"
            },
            {
              "internalType": "uint256",
              "name": "employeeLeavingDate",
              "type": "uint256"
            },
            {
              "internalType": "uint256",
              "name": "minimumServiceRequired",
              "type": "uint256"
            }
          ],
          "internalType": "struct Employee[]",
          "name": "",
          "type": "tuple[]"
        }
      ],
      "stateMutability": "view",
      "type": "function"
    },
    {
      "inputs": [
        {
          "internalType": "address",
          "name": "_owner",
          "type": "address"
        },
        {
          "internalType": "string",
          "name": "_name",
          "type": "string"
        }
      ],
      "name": "initialize",
      "outputs": [],
      "stateMutability": "payable",
      "type": "function"
    },
    {
      "inputs": [
        {
          "internalType": "address",
          "name": "addressToFind",
          "type": "address"
        }
      ],
      "name": "isAddressInEmployee",
      "outputs": [
        {
          "internalType": "bool",
          "name": "",
          "type": "bool"
        }
      ],
      "stateMutability": "view",
      "type": "function"
    },
    {
      "inputs": [],
      "name": "name",
      "outputs": [
        {
          "internalType": "string",
          "name": "",
          "type": "string"
        }
      ],
      "stateMutability": "view",
      "type": "function"
    },
    {
      "inputs": [],
      "name": "owner",
      "outputs": [
        {
          "internalType": "address",
          "name": "",
          "type": "address"
        }
      ],
      "stateMutability": "view",
      "type": "function"
    },
    {
      "inputs": [],
      "name": "pensionCounter",
      "outputs": [
        {
          "internalType": "uint256",
          "name": "",
          "type": "uint256"
        }
      ],
      "stateMutability": "view",
      "type": "function"
    },
    {
      "inputs": [],
      "name": "renounceOwnership",
      "outputs": [],
      "stateMutability": "nonpayable",
      "type": "function"
    },
    {
      "inputs": [],
      "name": "swapRouter",
      "outputs": [
        {
          "internalType": "contract ISwapRouter",
          "name": "",
          "type": "address"
        }
      ],
      "stateMutability": "view",
      "type": "function"
    },
    {
      "inputs": [],
      "name": "transferFundsToEmployees",
      "outputs": [],
      "stateMutability": "nonpayable",
      "type": "function"
    },
    {
      "inputs": [
        {
          "internalType": "address",
          "name": "newOwner",
          "type": "address"
        }
      ],
      "name": "transferOwnership",
      "outputs": [],
      "stateMutability": "nonpayable",
      "type": "function"
    },
    {
      "inputs": [
        {
          "internalType": "address",
          "name": "_employeeAddress",
          "type": "address"
        },
        {
          "internalType": "uint256",
          "name": "_pensionStartDate",
          "type": "uint256"
        },
        {
          "internalType": "uint256",
          "name": "_pensionDuration",
          "type": "uint256"
        },
        {
          "internalType": "uint256",
          "name": "_monthyAmount",
          "type": "uint256"
        },
        {
          "internalType": "uint256",
          "name": "_employeeJoiningDate",
          "type": "uint256"
        },
        {
          "internalType": "uint256",
          "name": "_employeeLeavingDate",
          "type": "uint256"
        },
        {
          "internalType": "uint256",
          "name": "_minimumServiceRequired",
          "type": "uint256"
        }
      ],
      "name": "updateEmployee",
      "outputs": [],
      "stateMutability": "nonpayable",
      "type": "function"
    }
  ],
  "bytecode": "0x608060405234801561001057600080fd5b50612f46806100206000396000f3fe60806040526004361061013f5760003560e01c80637521720b116100b6578063db3cbd4f1161006f578063db3cbd4f14610436578063e3f106931461045f578063e826c8ac14610488578063f2fde38b146104b1578063f399e22e146104da578063f7e922fd146104f65761013f565b80637521720b1461032157806382f778a11461035e5780638da5cb5b14610375578063c31c9c07146103a0578063c3675a19146103cb578063d0678947146103f45761013f565b80634152772011610108578063415277201461023b5780634abefa36146102645780635353a2d81461028f578063563a144f146102b857806363f33e48146102e1578063715018a61461030a5761013f565b80626e430a1461014457806306fdde031461016d5780631fdf7fc91461019857806329e38391146101c157806332648e09146101fe575b600080fd5b34801561015057600080fd5b5061016b60048036038101906101669190612197565b610521565b005b34801561017957600080fd5b506101826107e7565b60405161018f9190612385565b60405180910390f35b3480156101a457600080fd5b506101bf60048036038101906101ba91906123a7565b610875565b005b3480156101cd57600080fd5b506101e860048036038101906101e391906123d4565b610961565b6040516101f5919061241c565b60405180910390f35b34801561020a57600080fd5b50610225600480360381019061022091906123d4565b610a10565b60405161023291906124c1565b60405180910390f35b34801561024757600080fd5b50610262600480360381019061025d91906123a7565b610aad565b005b34801561027057600080fd5b50610279610b2a565b6040516102869190612606565b60405180910390f35b34801561029b57600080fd5b506102b660048036038101906102b191906126dd565b610c9e565b005b3480156102c457600080fd5b506102df60048036038101906102da9190612764565b610cc0565b005b3480156102ed57600080fd5b50610308600480360381019061030391906127d3565b610d87565b005b34801561031657600080fd5b5061031f610e4e565b005b34801561032d57600080fd5b50610348600480360381019061034391906123a7565b610e62565b6040516103559190612851565b60405180910390f35b34801561036a57600080fd5b50610373610ea1565b005b34801561038157600080fd5b5061038a6114ab565b604051610397919061287b565b60405180910390f35b3480156103ac57600080fd5b506103b56114d5565b6040516103c291906128f5565b60405180910390f35b3480156103d757600080fd5b506103f260048036038101906103ed91906123a7565b6114fb565b005b34801561040057600080fd5b5061041b600480360381019061041691906123d4565b6115f5565b60405161042d9695949392919061291f565b60405180910390f35b34801561044257600080fd5b5061045d60048036038101906104589190612980565b611631565b005b34801561046b57600080fd5b50610486600480360381019061048191906123a7565b6116ed565b005b34801561049457600080fd5b506104af60048036038101906104aa9190612980565b6117e7565b005b3480156104bd57600080fd5b506104d860048036038101906104d391906123d4565b611983565b005b6104f460048036038101906104ef9190612a22565b611a07565b005b34801561050257600080fd5b5061050b611bcb565b6040516105189190612a7e565b60405180910390f35b610529611bd1565b60005b87518110156105df576000606660008a848151811061054e5761054d612a99565b5b602002602001015173ffffffffffffffffffffffffffffffffffffffff1673ffffffffffffffffffffffffffffffffffffffff1681526020019081526020016000206003015411156105cc576040517f45c167f400000000000000000000000000000000000000000000000000000000815260040160405180910390fd5b80806105d790612af7565b91505061052c565b5060005b87518110156107dd57606788828151811061060157610600612a99565b5b60200260200101519080600181540180825580915050600190039060005260206000200160009091909190916101000a81548173ffffffffffffffffffffffffffffffffffffffff021916908373ffffffffffffffffffffffffffffffffffffffff1602179055506040518060c0016040528088838151811061068757610686612a99565b5b602002602001015181526020018783815181106106a7576106a6612a99565b5b602002602001015181526020018683815181106106c7576106c6612a99565b5b602002602001015181526020018583815181106106e7576106e6612a99565b5b6020026020010151815260200184838151811061070757610706612a99565b5b6020026020010151815260200183838151811061072757610726612a99565b5b6020026020010151815250606660008a848151811061074957610748612a99565b5b602002602001015173ffffffffffffffffffffffffffffffffffffffff1673ffffffffffffffffffffffffffffffffffffffff168152602001908152602001600020600082015181600001556020820151816001015560408201518160020155606082015181600301556080820151816004015560a0820151816005015590505080806107d590612af7565b9150506105e3565b5050505050505050565b606580546107f490612b6f565b80601f016020809104026020016040519081016040528092919081815260200182805461082090612b6f565b801561086d5780601f106108425761010080835404028352916020019161086d565b820191906000526020600020905b81548152906001019060200180831161085057829003601f168201915b505050505081565b61087d611bd1565b6000606b6000838152602001908152602001600020905060026067805490506108a69190612bd0565b8160030154116108b557600080fd5b8060020160149054906101000a900460ff16156108d157600080fd5b8060020160009054906101000a900473ffffffffffffffffffffffffffffffffffffffff1673ffffffffffffffffffffffffffffffffffffffff166108fc82600101549081150290604051600060405180830381858888f1935050505015801561093f573d6000803e3d6000fd5b5060018160020160146101000a81548160ff0219169083151502179055505050565b600080600090505b606780549050811015610a05578273ffffffffffffffffffffffffffffffffffffffff16606782815481106109a1576109a0612a99565b5b9060005260206000200160009054906101000a900473ffffffffffffffffffffffffffffffffffffffff1673ffffffffffffffffffffffffffffffffffffffff1614156109f2576001915050610a0b565b80806109fd90612af7565b915050610969565b50600090505b919050565b610a18611dfa565b610a20611bd1565b606660008373ffffffffffffffffffffffffffffffffffffffff1673ffffffffffffffffffffffffffffffffffffffff1681526020019081526020016000206040518060c001604052908160008201548152602001600182015481526020016002820154815260200160038201548152602001600482015481526020016005820154815250509050919050565b610ab5611bd1565b60006069600083815260200190815260200160002090506002606780549050610ade9190612bd0565b816003015411610aed57600080fd5b8060020160149054906101000a900460ff1615610b0957600080fd5b60018160020160146101000a81548160ff0219169083151502179055505050565b6060610b34611bd1565b600060678054905067ffffffffffffffff811115610b5557610b54611efd565b5b604051908082528060200260200182016040528015610b8e57816020015b610b7b611dfa565b815260200190600190039081610b735790505b50905060005b606780549050811015610c96576066600060678381548110610bb957610bb8612a99565b5b9060005260206000200160009054906101000a900473ffffffffffffffffffffffffffffffffffffffff1673ffffffffffffffffffffffffffffffffffffffff1673ffffffffffffffffffffffffffffffffffffffff1681526020019081526020016000206040518060c00160405290816000820154815260200160018201548152602001600282015481526020016003820154815260200160048201548152602001600582015481525050828281518110610c7857610c77612a99565b5b60200260200101819052508080610c8e90612af7565b915050610b94565b508091505090565b610ca6611bd1565b8060659080519060200190610cbc929190611e30565b5050565b610cc8611bd1565b6000606b6000606a6000815480929190610ce190612af7565b919050558152602001908152602001600020905083816000019080519060200190610d0d929190611e30565b50828160010181905550818160020160006101000a81548173ffffffffffffffffffffffffffffffffffffffff021916908373ffffffffffffffffffffffffffffffffffffffff16021790555060008160020160146101000a81548160ff0219169083151502179055506000816003018190555050505050565b610d8f611bd1565b60006069600060686000815480929190610da890612af7565b919050558152602001908152602001600020905083816000019080519060200190610dd4929190611e30565b50828160010181905550818160020160006101000a81548173ffffffffffffffffffffffffffffffffffffffff021916908373ffffffffffffffffffffffffffffffffffffffff16021790555060008160020160146101000a81548160ff0219169083151502179055506000816003018190555050505050565b610e56611bd1565b610e606000611c4f565b565b60678181548110610e7257600080fd5b906000526020600020016000915054906101000a900473ffffffffffffffffffffffffffffffffffffffff1681565b60008062281dc0905080606c54610eb89190612c01565b42106114a75760005b606780549050811015611102576066600060678381548110610ee657610ee5612a99565b5b9060005260206000200160009054906101000a900473ffffffffffffffffffffffffffffffffffffffff1673ffffffffffffffffffffffffffffffffffffffff1673ffffffffffffffffffffffffffffffffffffffff168152602001908152602001600020600501546066600060678481548110610f6757610f66612a99565b5b9060005260206000200160009054906101000a900473ffffffffffffffffffffffffffffffffffffffff1673ffffffffffffffffffffffffffffffffffffffff1673ffffffffffffffffffffffffffffffffffffffff168152602001908152602001600020600301546066600060678581548110610fe857610fe7612a99565b5b9060005260206000200160009054906101000a900473ffffffffffffffffffffffffffffffffffffffff1673ffffffffffffffffffffffffffffffffffffffff1673ffffffffffffffffffffffffffffffffffffffff1681526020019081526020016000206004015461105b9190612c57565b106110ef57606660006067838154811061107857611077612a99565b5b9060005260206000200160009054906101000a900473ffffffffffffffffffffffffffffffffffffffff1673ffffffffffffffffffffffffffffffffffffffff1673ffffffffffffffffffffffffffffffffffffffff16815260200190815260200160002060020154836110ec9190612c01565b92505b80806110fa90612af7565b915050610ec1565b5081471015611180573073ffffffffffffffffffffffffffffffffffffffff167f64acc7be4af62d3ff4a1793bb366bd5a36bf5c99de64b0929eccaf79616477a960405160405180910390a26040517f356680b700000000000000000000000000000000000000000000000000000000815260040160405180910390fd5b60005b60678054905081101561143b5760666000606783815481106111a8576111a7612a99565b5b9060005260206000200160009054906101000a900473ffffffffffffffffffffffffffffffffffffffff1673ffffffffffffffffffffffffffffffffffffffff1673ffffffffffffffffffffffffffffffffffffffff16815260200190815260200160002060050154606660006067848154811061122957611228612a99565b5b9060005260206000200160009054906101000a900473ffffffffffffffffffffffffffffffffffffffff1673ffffffffffffffffffffffffffffffffffffffff1673ffffffffffffffffffffffffffffffffffffffff1681526020019081526020016000206003015460666000606785815481106112aa576112a9612a99565b5b9060005260206000200160009054906101000a900473ffffffffffffffffffffffffffffffffffffffff1673ffffffffffffffffffffffffffffffffffffffff1673ffffffffffffffffffffffffffffffffffffffff1681526020019081526020016000206004015461131d9190612c57565b10611428576067818154811061133657611335612a99565b5b9060005260206000200160009054906101000a900473ffffffffffffffffffffffffffffffffffffffff1673ffffffffffffffffffffffffffffffffffffffff166108fc606660006067858154811061139257611391612a99565b5b9060005260206000200160009054906101000a900473ffffffffffffffffffffffffffffffffffffffff1673ffffffffffffffffffffffffffffffffffffffff1673ffffffffffffffffffffffffffffffffffffffff168152602001908152602001600020600201549081150290604051600060405180830381858888f19350505050158015611426573d6000803e3d6000fd5b505b808061143390612af7565b915050611183565b503073ffffffffffffffffffffffffffffffffffffffff167f353a1d99b303c63c35b3b6f821c12b7d2e8e025d15e8fbf4265cd62a81013021836040516114829190612a7e565b60405180910390a26001606d546114999190612c01565b606d8190555042606c819055505b5050565b6000603360009054906101000a900473ffffffffffffffffffffffffffffffffffffffff16905090565b606e60009054906101000a900473ffffffffffffffffffffffffffffffffffffffff1681565b61150433610961565b61150d57600080fd5b60006069600083815260200190815260200160002090508060040160003373ffffffffffffffffffffffffffffffffffffffff1673ffffffffffffffffffffffffffffffffffffffff16815260200190815260200160002060009054906101000a900460ff161561157d57600080fd5b60018160040160003373ffffffffffffffffffffffffffffffffffffffff1673ffffffffffffffffffffffffffffffffffffffff16815260200190815260200160002060006101000a81548160ff0219169083151502179055508060030160008154809291906115ec90612af7565b91905055505050565b60666020528060005260406000206000915090508060000154908060010154908060020154908060030154908060040154908060050154905086565b611639611bd1565b6040518060c0016040528087815260200186815260200185815260200184815260200183815260200182815250606660008973ffffffffffffffffffffffffffffffffffffffff1673ffffffffffffffffffffffffffffffffffffffff168152602001908152602001600020600082015181600001556020820151816001015560408201518160020155606082015181600301556080820151816004015560a0820151816005015590505050505050505050565b6116f633610961565b6116ff57600080fd5b6000606b600083815260200190815260200160002090508060040160003373ffffffffffffffffffffffffffffffffffffffff1673ffffffffffffffffffffffffffffffffffffffff16815260200190815260200160002060009054906101000a900460ff161561176f57600080fd5b60018160040160003373ffffffffffffffffffffffffffffffffffffffff1673ffffffffffffffffffffffffffffffffffffffff16815260200190815260200160002060006101000a81548160ff0219169083151502179055508060030160008154809291906117de90612af7565b91905055505050565b6117ef611bd1565b6000606660008973ffffffffffffffffffffffffffffffffffffffff1673ffffffffffffffffffffffffffffffffffffffff16815260200190815260200160002060030154111561186c576040517f45c167f400000000000000000000000000000000000000000000000000000000815260040160405180910390fd5b6040518060c0016040528087815260200186815260200185815260200184815260200183815260200182815250606660008973ffffffffffffffffffffffffffffffffffffffff1673ffffffffffffffffffffffffffffffffffffffff168152602001908152602001600020600082015181600001556020820151816001015560408201518160020155606082015181600301556080820151816004015560a082015181600501559050506067879080600181540180825580915050600190039060005260206000200160009091909190916101000a81548173ffffffffffffffffffffffffffffffffffffffff021916908373ffffffffffffffffffffffffffffffffffffffff16021790555050505050505050565b61198b611bd1565b600073ffffffffffffffffffffffffffffffffffffffff168173ffffffffffffffffffffffffffffffffffffffff1614156119fb576040517f08c379a00000000000000000000000000000000000000000000000000000000081526004016119f290612cfd565b60405180910390fd5b611a0481611c4f565b50565b60008060019054906101000a900460ff16159050808015611a385750600160008054906101000a900460ff1660ff16105b80611a655750611a4730611d15565b158015611a645750600160008054906101000a900460ff1660ff16145b5b611aa4576040517f08c379a0000000000000000000000000000000000000000000000000000000008152600401611a9b90612d8f565b60405180910390fd5b60016000806101000a81548160ff021916908360ff1602179055508015611ae1576001600060016101000a81548160ff0219169083151502179055505b611ae9611d38565b611af283611983565b8160659080519060200190611b08929190611e30565b5073e592427a0aece92de3edee1f18e0157c05861564606e60006101000a81548173ffffffffffffffffffffffffffffffffffffffff021916908373ffffffffffffffffffffffffffffffffffffffff16021790555042606c819055506000606d819055508015611bc65760008060016101000a81548160ff0219169083151502179055507f7f26b83ff96e1f2b6a682f133852f6798a09c465da95921460cefb38474024986001604051611bbd9190612df7565b60405180910390a15b505050565b606d5481565b611bd9611d91565b73ffffffffffffffffffffffffffffffffffffffff16611bf76114ab565b73ffffffffffffffffffffffffffffffffffffffff1614611c4d576040517f08c379a0000000000000000000000000000000000000000000000000000000008152600401611c4490612e5e565b60405180910390fd5b565b6000603360009054906101000a900473ffffffffffffffffffffffffffffffffffffffff16905081603360006101000a81548173ffffffffffffffffffffffffffffffffffffffff021916908373ffffffffffffffffffffffffffffffffffffffff1602179055508173ffffffffffffffffffffffffffffffffffffffff168173ffffffffffffffffffffffffffffffffffffffff167f8be0079c531659141344cd1fd0a4f28419497f9722a3daafe3b4186f6b6457e060405160405180910390a35050565b6000808273ffffffffffffffffffffffffffffffffffffffff163b119050919050565b600060019054906101000a900460ff16611d87576040517f08c379a0000000000000000000000000000000000000000000000000000000008152600401611d7e90612ef0565b60405180910390fd5b611d8f611d99565b565b600033905090565b600060019054906101000a900460ff16611de8576040517f08c379a0000000000000000000000000000000000000000000000000000000008152600401611ddf90612ef0565b60405180910390fd5b611df8611df3611d91565b611c4f565b565b6040518060c001604052806000815260200160008152602001600081526020016000815260200160008152602001600081525090565b828054611e3c90612b6f565b90600052602060002090601f016020900481019282611e5e5760008555611ea5565b82601f10611e7757805160ff1916838001178555611ea5565b82800160010185558215611ea5579182015b82811115611ea4578251825591602001919060010190611e89565b5b509050611eb29190611eb6565b5090565b5b80821115611ecf576000816000905550600101611eb7565b5090565b6000604051905090565b600080fd5b600080fd5b600080fd5b6000601f19601f8301169050919050565b7f4e487b7100000000000000000000000000000000000000000000000000000000600052604160045260246000fd5b611f3582611eec565b810181811067ffffffffffffffff82111715611f5457611f53611efd565b5b80604052505050565b6000611f67611ed3565b9050611f738282611f2c565b919050565b600067ffffffffffffffff821115611f9357611f92611efd565b5b602082029050602081019050919050565b600080fd5b600073ffffffffffffffffffffffffffffffffffffffff82169050919050565b6000611fd482611fa9565b9050919050565b611fe481611fc9565b8114611fef57600080fd5b50565b60008135905061200181611fdb565b92915050565b600061201a61201584611f78565b611f5d565b9050808382526020820190506020840283018581111561203d5761203c611fa4565b5b835b8181101561206657806120528882611ff2565b84526020840193505060208101905061203f565b5050509392505050565b600082601f83011261208557612084611ee7565b5b8135612095848260208601612007565b91505092915050565b600067ffffffffffffffff8211156120b9576120b8611efd565b5b602082029050602081019050919050565b6000819050919050565b6120dd816120ca565b81146120e857600080fd5b50565b6000813590506120fa816120d4565b92915050565b600061211361210e8461209e565b611f5d565b9050808382526020820190506020840283018581111561213657612135611fa4565b5b835b8181101561215f578061214b88826120eb565b845260208401935050602081019050612138565b5050509392505050565b600082601f83011261217e5761217d611ee7565b5b813561218e848260208601612100565b91505092915050565b600080600080600080600060e0888a0312156121b6576121b5611edd565b5b600088013567ffffffffffffffff8111156121d4576121d3611ee2565b5b6121e08a828b01612070565b975050602088013567ffffffffffffffff81111561220157612200611ee2565b5b61220d8a828b01612169565b965050604088013567ffffffffffffffff81111561222e5761222d611ee2565b5b61223a8a828b01612169565b955050606088013567ffffffffffffffff81111561225b5761225a611ee2565b5b6122678a828b01612169565b945050608088013567ffffffffffffffff81111561228857612287611ee2565b5b6122948a828b01612169565b93505060a088013567ffffffffffffffff8111156122b5576122b4611ee2565b5b6122c18a828b01612169565b92505060c088013567ffffffffffffffff8111156122e2576122e1611ee2565b5b6122ee8a828b01612169565b91505092959891949750929550565b600081519050919050565b600082825260208201905092915050565b60005b8381101561233757808201518184015260208101905061231c565b83811115612346576000848401525b50505050565b6000612357826122fd565b6123618185612308565b9350612371818560208601612319565b61237a81611eec565b840191505092915050565b6000602082019050818103600083015261239f818461234c565b905092915050565b6000602082840312156123bd576123bc611edd565b5b60006123cb848285016120eb565b91505092915050565b6000602082840312156123ea576123e9611edd565b5b60006123f884828501611ff2565b91505092915050565b60008115159050919050565b61241681612401565b82525050565b6000602082019050612431600083018461240d565b92915050565b612440816120ca565b82525050565b60c08201600082015161245c6000850182612437565b50602082015161246f6020850182612437565b5060408201516124826040850182612437565b5060608201516124956060850182612437565b5060808201516124a86080850182612437565b5060a08201516124bb60a0850182612437565b50505050565b600060c0820190506124d66000830184612446565b92915050565b600081519050919050565b600082825260208201905092915050565b6000819050602082019050919050565b60c08201600082015161251e6000850182612437565b5060208201516125316020850182612437565b5060408201516125446040850182612437565b5060608201516125576060850182612437565b50608082015161256a6080850182612437565b5060a082015161257d60a0850182612437565b50505050565b600061258f8383612508565b60c08301905092915050565b6000602082019050919050565b60006125b3826124dc565b6125bd81856124e7565b93506125c8836124f8565b8060005b838110156125f95781516125e08882612583565b97506125eb8361259b565b9250506001810190506125cc565b5085935050505092915050565b6000602082019050818103600083015261262081846125a8565b905092915050565b600080fd5b600067ffffffffffffffff82111561264857612647611efd565b5b61265182611eec565b9050602081019050919050565b82818337600083830152505050565b600061268061267b8461262d565b611f5d565b90508281526020810184848401111561269c5761269b612628565b5b6126a784828561265e565b509392505050565b600082601f8301126126c4576126c3611ee7565b5b81356126d484826020860161266d565b91505092915050565b6000602082840312156126f3576126f2611edd565b5b600082013567ffffffffffffffff81111561271157612710611ee2565b5b61271d848285016126af565b91505092915050565b600061273182611fa9565b9050919050565b61274181612726565b811461274c57600080fd5b50565b60008135905061275e81612738565b92915050565b60008060006060848603121561277d5761277c611edd565b5b600084013567ffffffffffffffff81111561279b5761279a611ee2565b5b6127a7868287016126af565b93505060206127b8868287016120eb565b92505060406127c98682870161274f565b9150509250925092565b6000806000606084860312156127ec576127eb611edd565b5b600084013567ffffffffffffffff81111561280a57612809611ee2565b5b612816868287016126af565b9350506020612827868287016120eb565b925050604061283886828701611ff2565b9150509250925092565b61284b81612726565b82525050565b60006020820190506128666000830184612842565b92915050565b61287581611fc9565b82525050565b6000602082019050612890600083018461286c565b92915050565b6000819050919050565b60006128bb6128b66128b184611fa9565b612896565b611fa9565b9050919050565b60006128cd826128a0565b9050919050565b60006128df826128c2565b9050919050565b6128ef816128d4565b82525050565b600060208201905061290a60008301846128e6565b92915050565b612919816120ca565b82525050565b600060c0820190506129346000830189612910565b6129416020830188612910565b61294e6040830187612910565b61295b6060830186612910565b6129686080830185612910565b61297560a0830184612910565b979650505050505050565b600080600080600080600060e0888a03121561299f5761299e611edd565b5b60006129ad8a828b01611ff2565b97505060206129be8a828b016120eb565b96505060406129cf8a828b016120eb565b95505060606129e08a828b016120eb565b94505060806129f18a828b016120eb565b93505060a0612a028a828b016120eb565b92505060c0612a138a828b016120eb565b91505092959891949750929550565b60008060408385031215612a3957612a38611edd565b5b6000612a4785828601611ff2565b925050602083013567ffffffffffffffff811115612a6857612a67611ee2565b5b612a74858286016126af565b9150509250929050565b6000602082019050612a936000830184612910565b92915050565b7f4e487b7100000000000000000000000000000000000000000000000000000000600052603260045260246000fd5b7f4e487b7100000000000000000000000000000000000000000000000000000000600052601160045260246000fd5b6000612b02826120ca565b91507fffffffffffffffffffffffffffffffffffffffffffffffffffffffffffffffff821415612b3557612b34612ac8565b5b600182019050919050565b7f4e487b7100000000000000000000000000000000000000000000000000000000600052602260045260246000fd5b60006002820490506001821680612b8757607f821691505b60208210811415612b9b57612b9a612b40565b5b50919050565b7f4e487b7100000000000000000000000000000000000000000000000000000000600052601260045260246000fd5b6000612bdb826120ca565b9150612be6836120ca565b925082612bf657612bf5612ba1565b5b828204905092915050565b6000612c0c826120ca565b9150612c17836120ca565b9250827fffffffffffffffffffffffffffffffffffffffffffffffffffffffffffffffff03821115612c4c57612c4b612ac8565b5b828201905092915050565b6000612c62826120ca565b9150612c6d836120ca565b925082821015612c8057612c7f612ac8565b5b828203905092915050565b7f4f776e61626c653a206e6577206f776e657220697320746865207a65726f206160008201527f6464726573730000000000000000000000000000000000000000000000000000602082015250565b6000612ce7602683612308565b9150612cf282612c8b565b604082019050919050565b60006020820190508181036000830152612d1681612cda565b9050919050565b7f496e697469616c697a61626c653a20636f6e747261637420697320616c72656160008201527f647920696e697469616c697a6564000000000000000000000000000000000000602082015250565b6000612d79602e83612308565b9150612d8482612d1d565b604082019050919050565b60006020820190508181036000830152612da881612d6c565b9050919050565b6000819050919050565b600060ff82169050919050565b6000612de1612ddc612dd784612daf565b612896565b612db9565b9050919050565b612df181612dc6565b82525050565b6000602082019050612e0c6000830184612de8565b92915050565b7f4f776e61626c653a2063616c6c6572206973206e6f7420746865206f776e6572600082015250565b6000612e48602083612308565b9150612e5382612e12565b602082019050919050565b60006020820190508181036000830152612e7781612e3b565b9050919050565b7f496e697469616c697a61626c653a20636f6e7472616374206973206e6f74206960008201527f6e697469616c697a696e67000000000000000000000000000000000000000000602082015250565b6000612eda602b83612308565b9150612ee582612e7e565b604082019050919050565b60006020820190508181036000830152612f0981612ecd565b905091905056fea2646970667358221220413662e6c9c95af51fd9bd69301db61f9aa4860bfb0a09004199a58be1be6f2664736f6c63430008090033",
  "linkReferences": {},
  "deployedLinkReferences": {}
}